:100000000C9456000C946D000C946D000C946D00D3
:100010000C946D000C946D000C946D000C946D00AC
:100020000C946D000C946D000C946D000C946D009C
:100030000C946D000C946D000C946D000C946D008C
:100040000C946D000C946D000C946D000C946D007C
:100050000C946D000C946D000C946D000C946D006C
:100060000C946D000C946D000C946D000C946D005C
:100070000C946D000C946D000C946D000C946D004C
:100080000C946D000C946D000C946D00CB00CE00B0
:10009000CE00D100D100D400D400D700D700D700C3
:1000A000DA00DA00DA00DD00DD00DD0011241FBE19
:1000B000CFEFD0E4DEBFCDBF11E0A0E0B1E0E2EED3
:1000C000F1E000E00BBF02C007900D92AE30B10727
:1000D000D9F70E9498000C94EF000C940000CF9385
:1000E000DF9300D01F92CDB7DEB789837B836A830D
:1000F00089818A3031F48A819B81BC018DE00E9424
:100100006F0080EC90E0FC018081882F90E080728D
:100110009927892BB1F386EC90E02981FC0120839B
:1001200080E090E00F900F900F90DF91CF910895B5
:10013000CF93DF9300D0CDB7DEB781E290E0FC0132
:10014000108282E290E02FEFFC01208387E290E0B2
:100150002FEFFC01208388E290E0FC01108280E216
:1001600090E0FC01808180958F708A838A81882F3E
:1001700090E0092E000CAA0BBB0B40E050E02FE0F2
:1001800030E0841B950B28173907D0F08A5B9F4F0E
:10019000FC010C94E60080E4898312C080E6898328
:1001A0000FC080E789830CC088E3898309C08CE392
:1001B000898306C08EE3898303C08FE389830000AF
:1001C00088E290E02981FC012083C9CFEE0FFF1F58
:1001D0000024001C0BBE0790F691E02D0994F894C2
:0201E000FFCF4F
:0E01E20000000002000000006F00000000009E
:00000001FF
